:100000000C945C000C9479000C9479000C947900A9
:100010000C9479000C9479000C9479000C9479007C
:100020000C9479000C9479000C9479000C9479006C
:100030000C9479000C9479000C9479000C9479005C
:100040000C9421010C9479000C9479000C947900A3
:100050000C9479000C9479000C9479000C9479003C
:100060000C9479000C947900000000080002010053
:100070000003040700000000000000000000000072
:10008000250028002B0000000000240027002A0083
:10009000040404040404040402020202020203032E
:1000A0000303030301020408102040800102040836
:1000B000102001020408102011241FBECFEFD8E049
:1000C000DEBFCDBF11E0A0E0B1E0ECE5F4E002C09E
:1000D00005900D92AC30B107D9F721E0ACE0B1E06A
:1000E00001C01D92A731B207E1F70E946B010C9489
:1000F0002C020C94000090E0FC01E859FF4F249181
:10010000FC01EC55FF4F3491FC01E057FF4FE491A7
:10011000EE23C9F0222339F0233001F1A8F4213075
:1001200019F1223029F1F0E0EE0FFF1FE458FF4FE4
:10013000A591B4918FB7F894EC91611126C03095D8
:100140003E233C938FBF08952730A9F02830C9F093
:10015000243049F7809180008F7D03C0809180001A
:100160008F7780938000DFCF84B58F7784BDDBCF1E
:1001700084B58F7DFBCF8091B0008F778093B000E6
:10018000D2CF8091B0008F7DF9CF3E2BDACF3FB731
:10019000F8948091110190911201A0911301B091F6
:1001A000140126B5A89B05C02F3F19F00196A11D8B
:1001B000B11D3FBFBA2FA92F982F8827BC01CD01B1
:1001C000620F711D811D911D42E0660F771F881F10
:1001D000991F4A95D1F708958F929F92AF92BF923F
:1001E000CF92DF92EF92FF920E94C7004B015C0119
:1001F00084E6C82ED12CE12CF12C0E94C70068198E
:1002000079098A099B09683E734081059105A8F325
:1002100021E0C21AD108E108F10888EE880E83E0D7
:10022000981EA11CB11CC114D104E104F10429F7EA
:10023000FF90EF90DF90CF90BF90AF909F908F9006
:1002400008951F920F920FB60F9211242F933F9390
:100250008F939F93AF93BF9380910D0190910E0167
:10026000A0910F01B091100130910C0123E0230FF8
:100270002D3758F50196A11DB11D20930C018093D7
:100280000D0190930E01A0930F01B0931001809186
:10029000110190911201A0911301B09114010196E6
:1002A000A11DB11D8093110190931201A093130120
:1002B000B0931401BF91AF919F918F913F912F9176
:1002C0000F900FBE0F901F90189526E8230F0296EF
:1002D000A11DB11DD2CF789484B5826084BD84B550
:1002E000816084BD85B5826085BD85B5816085BD31
:1002F00080916E00816080936E00109281008091E9
:100300008100826080938100809181008160809370
:100310008100809180008160809380008091B10095
:1003200084608093B1008091B00081608093B000C0
:1003300080917A00846080937A0080917A00826054
:1003400080937A0080917A00816080937A00809116
:100350007A00806880937A001092C1001092160192
:100360001092150180911501909116018730910529
:1003700014F107E010E050E0E52E50E0F52E109269
:10038000160110921501C0911501D0911601C830C7
:10039000D1050CF03FC061E08C2F0E947B000E94D1
:1003A000EC0060E08C2F0E947B002196D093160118
:1003B000C0931501E8CF880F991FFC01E050FF4F53
:1003C000808191819927FC01EC55FF4F2491805742
:1003D0009F4FFC018491882399F090E0880F991F2A
:1003E000FC01EA57FF4FA591B491FC01E458FF4F7F
:1003F000859194918FB7F894EC91E22BEC938FBF99
:1004000080911501909116010196909316018093A9
:100410001501A8CF1093160100931501C091150185
:10042000D0911601C230D10584F061E08C2F0E947A
:100430007B000E94EC0060E08C2F0E947B002197E3
:10044000D0931601C0931501E9CFE114F10409F42A
:0C04500096CF0E94000093CFF894FFCFDD
:0C045C0002000300040005000600070079
:00000001FF
